:100000000C94E5000C940D010C940D010C940D0161
:100010000C940D010C940D010C940D010C94AB0883
:100020000C940D010C940D010C940D010C94970D82
:100030000C940D010C940D010C940D010C940D0108
:100040000C94BA0C0C940D010C9453090C942D09CA
:100050000C940D010C940D010C940D010C940D01E8
:100060000C940D010C940D01B801DB0108027C0217
:100070000D037D038F03AC033A048B045105CE06B8
:100080007D075C195F196219651968196B196E197A
:100090007119741977197A197D19801983198619BC
:1000A00089198C198F199219B219B519B819BB1978
:1000B000BE19C119C419C719CA19CD19D019D31934
:1000C000D619901B931B961B9F1BA21BAB1BD11B0E
:1000D000D81BE51BF41BFF1B101C171C1E1C2B1C24
:1000E000361C391C421C451C4E1C801C041D271D3F
:1000F0004C1D7A1D911DA81DCB1DF71D261E551EDA
:10010000841EAE1ED31E011F2C1F431F841F9B1F66
:10011000B21F05A84CCDB2D44EB93836A9020C5046
:10012000B9918688083CA6AAAA2ABE000000803F92
:1001300025250045200026260025250044200026F0
:1001400026002525004E20002626002525004220D9
:10015000002626002525004920002626002525000A
:100160004100262600252500460026260000000026
:1001700000240027002A00000000080002010000FF
:100180000304070000000000000000010204081042
:100190002040800102040810200102040810200001
:1001A000000000250028002B0004040404040404BB
:1001B000040202020202020303030303030200001B
:1001C0000000230026002900CD2A11241FBECFEFF6
:1001D000D8E0DEBFCDBF13E0A0E0B1E0EEE3F2E691
:1001E00002C005900D92A836B107D9F728E0A8E61D
:1001F000B3E001C01D92A936B207E1F710E0C5EEE9
:10020000D0E004C02197FE010E94EC30C43ED1072B
:10021000C9F70E9498260C941D310C9400002F926F
:100220003F924F925F926F927F928F929F92AF9286
:10023000BF92CF92DF92EF92FF920F931F93CF93D3
:10024000DF93CDB7DEB7C058D1090FB6F894DEBF43
:100250000FBECDBF28E0E9E0F1E0DE01AF58BF4FAF
:1002600001900D922A95E1F728E0E1E1F1E0DE014D
:10027000A759BF4F01900D922A95E1F728E0E9E1D7
:10028000F1E0DE01AF59BF4F01900D922A95E1F7E1
:1002900028E0E1E2F1E0DE01A75ABF4F01900D92A4
:1002A0002A95E1F728E0E9E2F1E0DE01AF5ABF4F1D
:1002B00001900D922A95E1F728E0E1E3F1E0DE01FB
:1002C000A75BBF4F01900D922A95E1F728E0E9E383
:1002D000F1E0DE01AF5BBF4F01900D922A95E1F78F
:1002E00028E0E1E4F1E0DE01D99601900D922A9533
:1002F000E1F728E0E9E4F1E0DE01D19601900D920A
:100300002A95E1F728E0E1E5F1E0DE019996019018
:100310000D922A95E1F728E0E9E5F1E0DE019196FA
:1003200001900D922A95E1F728E0E1E6F1E0DE0187
:10033000599601900D922A95E1F728E0E9E6F1E05F
:10034000DE01519601900D922A95E1F728E0E1E750
:10035000F1E0DE01199601900D922A95E1F78D30BA
:10036000910508F03CC6FC01EC5CFF4F0C94EC30AE
:100370000EE110E022E330E040E050E064EA70ED8E
:1003800084E294E40E94C8156AE070E080E090E0A6
:100390000E9482128DE090E00E94EF1C24E130E088
:1003A00040E253E060E070E080E89FE30E94AF1419
:1003B0008DE090E02FC16BE070E080E090E00E9463
:1003C00082128BE090E00E94EF1C6CE070E080E015
:1003D00090E00E94821264E170E084EF91E00E945C
:1003E0001B216BE070E080E090E00E9482128CE0C4
:1003F00090E00E94EF1C6CE070E080E090E00E94D2
:10040000821264E170E084EF91E00E941B2180C2BF
:1004100066E170E080E090E00E948212BE016F58B9
:100420007F4F8CEB92E00E94CF12A8EC8A2E912C89
:10043000B4E1AB2EB12CC12CD12C1CE5E12E1FE870
:10044000F12E02E81FE320E030E84FE454E460E0DE
:1004500070E08CE594E40E94501868E170E080E060
:1004600090E00E94821220E030E845E454E460E02D
:1004700070E88FE494E40E94501867E170E080E037
:1004800090E00E94821220E030E049E354E460E012
:1004900070E885E494E40E94501868E170E080E020
:1004A00090E00E94821220E030E04FE254E460E0ED
:1004B00070E089E394E40E94501867E170E080E006
:1004C00090E00E94821220E030E447E254E460E0D1
:1004D00070E08FE294E40E94501866E170E080E0E2
:1004E00090E00E94821264EF71E080E090E00E9450
:1004F000850B0E940714D0C2BE0167597F4F8CEB59
:1005000092E00E94CF12F4E06F2E712C40E050E098
:1005100061E070E080E090E00E94E11F5AE0852EEB
:10052000912C6AE0A62EB12CC12CD12C18EBE12E17
:100530001EE1F12E05E81FE320E030E048E453E43B
:1005400060E070E088EC92E40E94501841E050E0D6
:1005500061E070E080E090E00E94E11F20E030E088
:1005600046E953E460E070E088E493E40E945018A8
:1005700042E050E061E070E080E090E00E94E11F26
:1005800020E030E04AEF53E460E070E086E993E475
:100590000E94501864EF71E080E090E00E94850BAB
:1005A00041E050E061E070E080E090E00E94E11FF7
:1005B00088248394912C20E030E04AE753E460E003
:1005C00070E088EC93E40E94501840E050E061E055
:1005D00070E080E090E00E94E11F20E030E048EC15
:1005E00052E460E070E08AE793E40E94501864EF00
:1005F00071E080E090E00E94850B21E0621A7108B2
:1006000009F084CF63E170E080E090E00E94821204
:1006100089E090E00E94EF1C7BC1BE016F597F4FC3
:1006200084EF91E00E94CF126CE271E080E090E0F4
:100630000E94850B63E170E080E090E00E948212EE
:1006400080E190E00E94EF1C60E170E080E090E0CB
:100650000E9482126AEF70E080E090E00E94850BB9
:10066000BE01675A7F4F84EF91E00E94CF126CE287
:1006700071E080E090E00E94850B63E170E080E033
:1006800090E00E94821281E190E00E94EF1C60E104
:1006900070E080E090E00E9482126AEF70E080E0FB
:1006A00090E00E94850BBE016F5A7F4F84EF91E06E
:1006B0000E94CF126CE271E080E090E00E94850B16
:1006C00063E170E080E090E00E94821282E190E0BD
:1006D0000E94EF1C60E170E080E090E00E948212D6
:1006E0006CE271E080E090E00E94850B0E940714AC
:1006F00064EF71E080E090E04EC3BE01675B7F4F26
:100700008CE291E00E94CF1264E170E080E090E022
:100710000E9482128FE090E00E94EF1CF3C06DE017
:1007200070E080E090E00E94821289E090E00E94F8
:10073000EF1C01E010E02FE030E04CED55E060E010
:1007400070E080E090E40E9461210E9407148DE037
:1007500090E00E94EF1CCAC3BE016F5B7F4F8CE22A
:1007600091E00E94CF126EE170E080E090E00E9484
:1007700082120EE110E024E630E040E050E060E05C
:1007800070E08CE594E40E94C81514E0812E912C51
:1007900007E0A02EB12CC12CD12C1CE5E12E1FE8C6
:1007A000F12E02E81FE32FE135ED42E954E460E069
:1007B00070E08CE594E40E94501888248394912C76
:1007C0002AE0A22EB12CC12CD12C2CE53FEF43EC1A
:1007D00054E46FE175ED82E994E40E94501820E042
:1007E00030E04CE554E46CE57FEF83EC94E40E9448
:1007F00050186FE070E080E090E00E94850B34E0DC
:10080000832E912C44E1A42EB12CC12CD12C24EAAE
:1008100030ED44E254E460E070E08CE594E40E9442
:10082000501860E971E080E090E00E94850BBE0105
:10083000675C7F4F88EC90E00E94CF122FE135ED8E
:1008400042E954E460E070E08CE594E40E945018C2
:10085000BE016F5C7F4F88EC90E00E94CF1224EACB
:1008600030ED44E254E460E070E08CE594E40E94F2
:1008700050184EC06EE170E080E090E00E9482125D
:10088000F4E08F2E912CA4E1AA2EB12CC12CD12CF6
:100890001CE5E12E1FE8F12E02E81FE32FE135ED04
:1008A00042E954E460E070E08CE594E40E94501862
:1008B00024EA30ED44E254E460E070E08CE594E436
:1008C0000E9450186CE271E080E090E00E94850B7D
:1008D00063E170E080E090E00E94821204E010E0AA
:1008E000BE01675D7F4F84E690E00E94CF120E94B8
:1008F000071401501109A1F76EE170E080E090E06B
:100900000E94821264EF71E080E090E00E94850B0B
:100910000E940714EBC224E030E0EB963FAF2EAF0D
:10092000EB9700E911E0612C712CA30162E070E00B
:1009300080E090E00E94E11FC8018C599F4FED9626
:100940009FAF8EAFED97B801110F880B990B0E94E6
:10095000152F1B012C01ED96EEADFFADED97BF01FC
:10096000FF0F880B990B0E94152F9B01AC016AE0C9
:10097000862E912C7AE0A72EB12CC12CD12C18EB0D
:10098000E12E1EE1F12E05E81FE3C201B1010E9434
:100990005018FFEF6F1A7F0AED960EAD1FADED9761
:1009A00026E06216710409F680E594E00E94580E74
:1009B00018EBE12E1EE1F12E05E81FE320E030E800
:1009C00049E854E4C201B1010E94501898EE492E42
:1009D00093E0592E612C712CA30162E070E080E05D
:1009E00090E00E94E11FB2016C597F4F072E000C6E
:1009F000880B990B0E94152F9B01AC01B201052CAD
:100A0000000C880B990BEE962FAFEE97EF963FAF49
:100A1000EF97C158DF4F4883CF57D040C058DF4FC2
:100A20005883C058D0400E94152FFAE08F2E912C89
:100A3000AAE0AA2EB12CC12CD12C18EBE12E1EE17C
:100A4000F12E05E81FE3EE962FADEE97EF963FAD42
:100A5000EF97C158DF4F4881CF57D040C058DF4F84
:100A60005881C058D0400E94501834E6431A5108AB
:100A70008FEF681A780A96E06916710409F0ACCF16
:100A8000EB96EEADFFADEB973197EB96FFAFEEAF88
:100A9000EB97EF2B09F045CF6CE271E080E090E03E
:100AA0007AC1A2E02A2E312CF4EF4F2E5524539414
:100AB000612C712CA30163E070E080E090E00E9463
:100AC000E11FB2016C597F4F072E000C880B990B68
:100AD0000E94152F9B01AC01B201052C000C880B64
:100AE000990BEE962FAFEE97EF963FAFEF97C15869
:100AF000DF4F4883CF57D040C058DF4F5883C0588E
:100B0000D0400E94152F4AE0842E912C5AE0A52E49
:100B1000B12CC12CD12C1CE5E12E1FE8F12E02E8EE
:100B20001FE3EE962FADEE97EF963FADEF97C158CE
:100B3000DF4F4881CF57D040C058DF4F5881C05851
:100B4000D0400E94501835E6430E511C8FEF681AB2
:100B5000780A9AE06916710409F0ACCF36EE432E9C
:100B600035E0532E612C712CA30163E070E080E02E
:100B700090E00E94E11FB2016C597F4F072E000CDC
:100B8000880B990B0E94152F9B01AC01B201052C1B
:100B9000000C880B990BEE962FAFEE97EF963FAFB8
:100BA000EF97C158DF4F4883CF57D040C058DF4F31
:100BB0005883C058D0400E94152FAAE08A2E912C4D
:100BC000BAE0AB2EB12CC12CD12C1CE5E12E1FE8D4
:100BD000F12E02E81FE3EE962FADEE97EF963FADB4
:100BE000EF97C158DF4F4881CF57D040C058DF4FF3
:100BF0005881C058D0400E945018E5E64E0E511C56
:100C0000FFEF6F1A7F0A2AE06216710409F0ACCF79
:100C1000F8ED4F2EF9E05F2E612C712CA30163E0FB
:100C200070E080E090E00E94E11FB201645671091B
:100C3000072E000C880B990B0E94152F9B01AC010D
:100C4000B201052C000C880B990BEE962FAFEE9796
:100C5000EF963FAFEF97C158DF4F4883CF57D04053
:100C6000C058DF4F5883C058D0400E94152F4AE02B
:100C7000842E912C5AE0A52EB12CC12CD12C1CE530
:100C8000E12E1FE8F12E02E81FE3EE962FADEE975E
:100C9000EF963FADEF97C158DF4F4881CF57D04017
:100CA000C058DF4F5881C058D0400E94501835E6D8
:100CB000431A51088FEF681A780A9AE0691671048E
:100CC00009F0ACCF36EE432E35E0532E612C712C5B
:100CD000A30163E070E080E090E00E94E11FB201B8
:100CE00064567109072E000C880B990B0E94152F72
:100CF0009B01AC01B201052C000C880B990BEE9600
:100D00002FAFEE97EF963FAFEF97C158DF4F488375
:100D1000CF57D040C058DF4F5883C058D0400E94B2
:100D2000152F1AE0812E912C0AE0A02EB12CC12C97
:100D3000D12C1CE5E12E1FE8F12E02E81FE3EE9610
:100D40002FADEE97EF963FADEF97C158DF4F48813B
:100D5000CF57D040C058DF4F5881C058D0400E9474
:100D60005018E5E64E1A5108FFEF6F1A7F0A2AE085
:100D70006216710409F0ACCF2A94232821F02224B2
:100D80002394312C91CE80E594E00E94580E64E6C5
:100D900070E080E090E00E94850BA8C06FE070E0FA
:100DA00080E090E00E94821240E4242E46E0342E3F
:100DB0005AE5652E712C68E0B62ECE0101962C0105
:100DC0007AE5E72EF12CE4EBCE2ED12CF2012B2D7F
:100DD00011922A95E9F7FA82E982FC82EB827E82FF
:100DE0006D82C6018619970998878F83B2018AE0C0
:100DF00090E00E94CF12B101032C000C880B990BDC
:100E00000E94152F01E010E02FE030E040E050E0BC
:100E10000E94C8153FEF631A730A84E1280E311C43
:100E200096E96916710491F66EE070E080E090E05A
:100E30000E94821280EF282E8AE0382E98E0B92E88
:100E40002AE5E22EF12C34EBC32ED12CF2012B2D0E
:100E500011922A95E9F7FA82E982FC82EB827E827E
:100E60006D82C6018619970998878F83B2018AE03F
:100E700090E00E94CF12B101032C000C880B990B5B
:100E80000E94152F01E010E02FE030E040E050E03C
:100E90000E94C81531E0631A710884E1280E311CE4
:100EA0009AE56916710491F66BE070E080E090E0DD
:100EB0000E94821264E170E084EF91E00E941B21A5
:100EC0008CE090E00E94EF1C6CE070E080E090E02D
:100ED0000E94821264E170E084EF91E00E941B2185
:100EE0000E94071480E594E00E94580E6BE070E0C9
:100EF00080E090E00E94821272C067E170E080E0C2
:100F000090E00E948212BE016F5D7F4F8CE291E003
:100F10000E94CF1201E010E028EC30E040E050E009
:100F200060E070E081E694E40E94C81568E170E03A
:100F300080E090E00E948212BE01675E7F4F8CE2EB
:100F400091E00E94CF1228EC30E040E050E060E0F9
:100F500070E086E194E40E94C81564E170E080E0EE
:100F600090E00E948212BE016F5E7F4F8CE291E0A2
:100F70000E94CF1228EC30E040E050E060E070E0EA
:100F800086E993E40E94C815BE01675F7F4F8CE23B
:100F900091E00E94CF126AE170E080E090E00E9450
:100FA00082120E94F71328E938E040E050E060E048
:100FB00070E086E193E40E94C81568E572E080E085
:100FC00090E00E94850B80E594E00E94580E6BE053
:100FD00070E080E090E00E9482120E940714C058E6
:100FE000DF4F0FB6F894DEBF0FBECDBFDF91CF91BC
:100FF0001F910F91FF90EF90DF90CF90BF90AF9037
:101000009F908F907F906F905F904F903F902F9028
:101010000895CF92DF92EF92FF920F931F93CF9399
:10102000DF936C017A018B01C0E0D0E0CE15DF05C3
:1010300089F0D8016D918D01D601ED91FC9101905F
:10104000F081E02DC6010995892B11F47E0102C0C3
:101050002196ECCFC701DF91CF911F910F91FF90A7
:10106000EF90DF90CF9008958EE893E00E94A7095B
:1010700021E0892B09F420E0822F08950E94F230AC
:10108000CF93DF9300D000D0CDB7DEB761157105E7
:101090008105910579F09B01AC0169833A834B830B
:1010A0005C830E94C02B29813A814B815C810E9424
:1010B000812D03C060E070E0CB010F900F900F9086
:1010C0000F90DF91CF910895EF92FF920F931F93AE
:1010D000CF93DF93EC0181E0888F9B8D8C8D9813EB
:1010E00005C0E889F989808185FD24C0F62E0B8D25
:1010F00010E00F5F1F4F0F731127E02E8C8DE81249
:101100000CC00FB607FCFACFE889F989808185FF0A
:10111000F5CFCE010E94E209F1CF8B8DFE01E80FE1
:10112000F11DE35AFF4FF0820B8FEA89FB89808122
:10113000806207C0EE89FF896083E889F989808130
:101140008064808381E090E0DF91CF911F910F91C7
:10115000FF90EF9008951F920F920FB60F921124F7
:101160002F933F934F935F936F937F938F939F93AF
:10117000AF93BF93EF93FF9380918A0390918B037A
:10118000A0918C03B0918D03892B8A2B8B2B59F165
:1011900080918703E0918803F091890390818927EA
:1011A000808380918A0390918B03A0918C03B091EE
:1011B0008D03181619061A061B060CF03DC0809107
:1011C0008A0390918B03A0918C03B0918D030197BA
:1011D000A109B10980938A0390938B03A0938C0398
:1011E000B0938D0329C080910201EDEBF1E0E49111
:1011F0009FEF90930201E130B9F098F0E230C9F42A
:10120000909170009D7F9093700091E09093B0005A
:101210009091B100987F94609093B1001092B300C8
:1012200008C010926E0005C090916F009D7F909352
:101230006F0060E00E94E60AFF91EF91BF91AF91CD
:101240009F918F917F916F915F914F913F912F91DE
:101250000F900FBE0F901F9018951F920F920FB610
:101260000F9211242F933F934F935F936F937F932C
:101270008F939F93AF93BF93EF93FF938EE893E089
:101280000E94E209FF91EF91BF91AF919F918F91E1
:101290007F916F915F914F913F912F910F900FBE72
:1012A0000F901F9018951F920F920FB60F92112456
:1012B0002F938F939F93EF93FF93E0919E03F09171
:1012C0009F038081E091A403F091A50382FD12C0E9
:1012D00090818091A7038F5F8F732091A80382175D
:1012E00051F0E091A703F0E0E257FC4F958F809317
:1012F000A70301C08081FF91EF919F918F912F9162
:101300000F900FBE0F901F901895FC01918D828D4C
:10131000981761F0828DDF01A80FB11D5D968C9149
:10132000928D9F5F9F73928F90E008958FEF9FEF54
:101330000895FC01918D828D981731F0828DE80F10
:10134000F11D858D90E008958FEF9FEF0895FC01CA
:10135000918D228D892F90E0805C9F4F821B910997
:101360008F739927089580E090E0892B29F00E94DF
:10137000340881110C94000008953FB7F8948091CF
:10138000830390918403A0918503B091860326B5D1
:10139000A89B05C02F3F19F00196A11DB11D3FBFAD
:1013A000BA2FA92F982F8827820F911DA11DB11D3B
:1013B000BC01CD0142E0660F771F881F991F4A9537
:1013C000D1F70895FC01848DDF01A80FB11DA35A48
:1013D000BF4F2C91848D90E001968F739927848F55
:1013E000A689B7892C93A089B1898C9180648C934C
:1013F000938D848D981306C00288F389E02D808137
:101400008F7D80830895CF93DF93EC01888D8823AF
:10141000C9F0EA89FB89808185FD05C0A889B98961
:101420008C9186FD0FC00FB607FCF5CF808185FF3C
:10143000F2CFA889B9898C9185FFEDCFCE010E94AA
:10144000E209E7CFDF91CF9108950E9407148AE562
:1014500091E00E94E42087E591E00E94E42081E889
:1014600091E00E94D22084E591E00E9405218EE85F
:1014700093E00C94030ACF93DF930E9407140E9419
:10148000C222EC0188E491E00E94E42085E491E02E
:101490000E94E420CE010E944C2282E491E00E944E
:1014A00005218EE893E0DF91CF910C94030ACF934E
:1014B000DF9300D000D0CDB7DEB70E9407140E94A2
:1014C0007A222AE330E040E050E00E94812D21158D
:1014D00031054105510521F427EE33E040E050E0AD
:1014E0008FE391E029833A834B835C830E94E4205D
:1014F0008CE391E00E94E42029813A814B815C8158
:10150000CA01B9010E94152F0E94DD2ECB010E9455
:101510004C2289E391E00E9405218EE893E00F9030
:101520000F900F900F90DF91CF910C94030ACF9200
:10153000DF92EF92FF920F931F93CF93DF93CDB77C
:10154000DEB72B970FB6F894DEBF0FBECDBF0E945B
:10155000071419821A821B821C82FE01359687E0CD
:10156000DF011D928A95E9F734977F0105E010E0CD
:101570006F01C8010E94392DD7018D937D010F5F46
:101580001F4F00311105A9F786E391E00E94E42086
:1015900083E391E00E94E420C6010E94D22080E310
:1015A00091E00E9405218EE893E00E94030A2B96A9
:1015B0000FB6F894DEBF0FBECDBFDF91CF911F9164
:1015C0000F91FF90EF90DF90CF90089590E0FC0195
:1015D000E958FE4F3491FC01E557FE4F2491FC0180
:1015E000E755FE4FE491EE2309F43BC0332339F174
:1015F000333091F038F43130A9F0323001F584B550
:101600008F7D12C0373091F03830A1F03430B9F40A
:10161000809180008F7D03C0809180008F778093C0
:1016200080000DC084B58F7784BD09C08091B00063
:101630008F7703C08091B0008F7D8093B000F0E081
:10164000EE0FFF1FE156FE4FA591B4918FB7F894AE
:10165000EC91611103C020952E2301C02E2B2C93F9
:101660008FBF0895CF93DF9390E0FC01E557FE4FC5
:101670002491FC01E755FE4F8491882361F190E0AD
:10168000880F991FFC01E359FE4FC591D491FC01CD
:10169000E156FE4FA591B491611109C09FB7F8942E
:1016A0008881209582238883EC912E230BC06230A1
:1016B00061F49FB7F8943881822F809583238883C3
:1016C000EC912E2B2C939FBF06C08FB7F894E88126
:1016D0002E2B28838FBFDF91CF9108958E3008F095
:1016E0008E508770806480937C0080917A00806443
:1016F00080937A0080917A0086FDFCCF80917800FB
:101700002091790090E0922B08958F929F92AF9252
:10171000BF92CF92DF92EF92FF926B017C010E9409
:10172000BD094B015C01C114D104E104F104F1F0E5
:101730000E94BD09DC01CB0188199909AA09BB09DE
:10174000883E9340A105B10570F321E0C21AD1088B
:10175000E108F10888EE880E83E0981EA11CB11CF8
:10176000C114D104E104F10419F7DDCFFF90EF902B
:10177000DF90CF90BF90AF909F908F9008954F9241
:101780005F926F927F928F929F92AF92BF92CF9211
:10179000DF92EF92FF92CF93DF930E9407140E9493
:1017A000E722CAE0D0E0C12CD12C76010E94E722CA
:1017B0009B01AC01C701B6010E94FA2D6B017C01AF
:1017C00061E070E080E090E00E94850B219771F766
:1017D00020E030E040E251E4C701B6010E946B2EE8
:1017E0006B017C014B015C0181E591E00E94E420EA
:1017F0008EE491E00E94E420A7019601C701B601A2
:101800000E943F30882319F088E593E01AC0260132
:101810003701E89477F82FEF3FEF4FE75FE7C30119
:10182000B2010E943F3081110FC02FEF3FEF4FE711
:101830005FE7C301B2010E94662E18162CF48CE5F6
:1018400093E00E94D22074C02FEF3FEF4FE75FE498
:10185000C701B6010E94C52F18161CF480E693E05C
:10186000F0CF2FEF3FEF4FE75FECC701B6010E94CB
:10187000662E87FDF3CF20E030E0A901C701B60155
:101880000E94662E87FF09C08DE20E944122460118
:101890005701B7FAB094B7F8B0942AE037ED43EAAD
:1018A0005BE3C501B4010E94FA2D4B015C010E946B
:1018B000E42E6B017C010E94132F9B01AC01C5013A
:1018C000B4010E94F92D4B015C014AE0C701B60149
:1018D0000E9400228EE20E94412220E030E040E29D
:1018E00051E4C501B4010E94CA2F4B015C010E9462
:1018F000E42E6B01E12CF12C4AE0C701B6010E94F5
:101900000022C701B6010E94132F9B01AC01C50143
:10191000B4010E94F92D20E030E040E251E40E9441
:10192000CA2F0E94E42E80E090E04AE00E9400224C
:101930008BE491E00E9405218EE893E0DF91CF9146
:10194000FF90EF90DF90CF90BF90AF909F908F90DF
:101950007F906F905F904F900C94030A2FB7F8948C
:1019600060917F0370918003809181039091820345
:101970002FBF08951F920F920FB60F9211242F932D
:101980003F938F939F93AF93BF9380917F039091E9
:101990008003A0918103B091820330917E0323E004
:1019A000230F2D3720F40196A11DB11D05C026E897
:1019B000230F0296A11DB11D20937E0380937F0308
:1019C00090938003A0938103B0938203809183035B
:1019D00090918403A0918503B09186030196A11D87
:1019E000B11D8093830390938403A0938503B093E8
:1019F0008603BF91AF919F918F913F912F910F904F
:101A00000FBE0F901F901895DC01EC91F0E0CF0114
:101A1000880F991FE80FF91FE55DFB4F808186FF56
:101A200002C08F7B80830895CF92DF92EF92FF9266
:101A3000CF93DF93EC01603282E078070CF03DC079
:101A400077FD06C0653B71052CF064EB70E002C0C9
:101A500060E070E0898128E830E06901C81AD108A7
:101A600087FDD394CC0CDD1CCC0CDD1C0D2C000CA4
:101A7000EE08FF088A8128E532E0281B310987FD3E
:101A80003395220F331F220F331FC901330FAA0BC7
:101A9000BB0B9C01AD012C193D094E095F09DB010F
:101AA0000E94AB2D24EB30E040E050E00E94812DFD
:101AB000C20ED31EE41EF51EB60188818C3080F55F
:101AC000998148E850E0491B510997FD5395440F0F
:101AD000551F440F551F6417750784F09A8128E538
:101AE00032E0291B310997FD3395220F331F220F56
:101AF000331FAB01261737070CF4A90142505109D7
:101B0000440F551F2FB7F89490E0FC01EE0FFF1F14
:101B10008E0F9F1FFC01E55DFB4F528341832FBF5A
:101B2000DF91CF91FF90EF90DF90CF9008951F92BB
:101B30000F920FB60F9211242F933F934F935F9301
:101B40006F937F938F939F93AF93BF93EF93FF9385
:101B500080917D0387FF05C010928500109284005C
:101B60001BC020917D03022E000C330B80914F048B
:101B700090E02817390784F480917D03082E000C2B
:101B8000990BFC01EE0FFF1F8E0F9F1FFC01E55DFF
:101B9000FB4F808186FD15C080917D038F5F809310
:101BA0007D0320917D03022E000C330B80914F04A6
:101BB00090E028173907C4F480917D038C3064F1DC
:101BC00013C080917D03082E000C990BFC01EE0FD1
:101BD000FF1F8E0F9F1FFC01E55DFB4F808160E0C2
:101BE0008F730E94E60AD8CF80918400909185007F
:101BF000049680349C4918F480E49CE905C08091E7
:101C000084009091850004969093890080938800C9
:101C10008FEF80937D033BC020918400309185003D
:101C200080917D03082E000C990BFC01EE0FFF1F25
:101C30008E0F9F1FFC01E55DFB4F81819281820F1A
:101C4000931F909389008093880080917D03082ED4
:101C5000000C990BFC01EE0FFF1F8E0F9F1FFC0164
:101C6000E55DFB4F808186FF12C080917D03082EC9
:101C7000000C990BFC01EE0FFF1F8E0F9F1FFC0144
:101C8000E55DFB4F808161E08F730E94E60AFF9162
:101C9000EF91BF91AF919F918F917F916F915F91E4
:101CA0004F913F912F910F900FBE0F901F9018955D
:101CB0009F92AF92BF92CF92DF92EF92FF920F93DB
:101CC0001F93CF93DF93EC01E12CF12C8C010C5F7F
:101CD0001F4F60E089810E94E60A5801C12CD12C77
:101CE000992493949E0C8B8190E0C816D90694F4A5
:101CF000492D6A8188810E94A11140E06A81888112
:101D00000E94A111F5011082FFEFCF1ADF0AAE0C7D
:101D1000BF1CE9CF60E089810E94E60A61E0898109
:101D20000E94E60A8FEFE81AF80AE8E0EE16F104DE
:101D300081F6F801CC5ADF4F1192EC17FD07E1F75D
:101D4000DF91CF911F910F91FF90EF90DF90CF9097
:101D5000BF90AF909F9008956EE170E080E090E0BA
:101D60000E94850B8AE691E00E94E42088E691E0DB
:101D70000E94E42085E691E00E9405218EE893E030
:101D80000C94030A6EE170E080E090E00E94850B05
:101D900082E691E00E94E42080E691E00E94E42047
:101DA0008DE591E00E9405218EE893E00C94030AF2
:101DB0000E94C20E0E9407140E941321009739F05E
:101DC0000E94E02C90937C0380937B0314C06AE113
:101DD00070E080E090E00E94821260ED77E080E0A9
:101DE00090E00E94850B80E594E00E94580E1092CE
:101DF0007C0310927B030E941321009739F00E940C
:101E0000E02C90937A038093790304C010927A03B4
:101E1000109279030E941321009739F00E94E02C60
:101E2000909378038093770304C010927803109204
:101E3000770369E170E080E090E00E94821260ED3B
:101E400077E080E090E00E94850B80E594E00C94C0
:101E5000580ECF93DF930E94C20E0E9407140E9477
:101E60001321009769F00E94E02C909376038093F1
:101E700075036DE070E080E090E00E94821214C073
:101E80006AE170E080E090E00E94821260ED77E00D
:101E900080E090E00E94850B80E594E00E94580E5F
:101EA0001092760310927503C0917503D09176035A
:101EB000C230D105E1F104F5209709F45AC0C130D0
:101EC000D10509F056C0D0936C03C0936B0383E037
:101ED00090E00E94EF1C61E070E080E090E00E94E2
:101EE000821268EE73E080E090E00E94850B68EC5F
:101EF00070E080E090E02DC0C330D10569F1C430BE
:101F0000D105B9F583E090E00E94EF1C64E070E039
:101F100080E090E00E94821268EE73E080E090E042
:101F20000E94850BD0936C03C0936B0326C0D093A3
:101F30006C03C0936B0384E090E00E94EF1C62E0AE
:101F400070E080E090E00E94821268EE73E080E032
:101F500090E00E94850B11C0D0936C03C0936B037B
:101F600085E090E00E94EF1C63E070E080E090E08C
:101F7000EACF10926C0310926B03DF91CF910C9417
:101F8000AC0E1F93CF93DF93EC019881292F30E0A3
:101F9000F901EE0FFF1F2E0F3F1FF901E55DFB4F0B
:101FA000808186FD83C0162F9C3008F04EC061E012
:101FB000812F0E94320B8881E82FF0E09F01220FD1
:101FC000331FE20FF31FE55DFB4F1F736081607CE1
:101FD000162B108319821A826CE00E94CC309CE090
:101FE000899FB001112440E050E09A01260F371F6D
:101FF000F901EE0FFF1F2E0F3F1FF901E55DFB4FAB
:10200000908196FD16C04F5F5F4F4C30510569F7C8
:1020100081110FC01092800082E0809381001092A5
:10202000850010928400B19A80916F008260809345
:102030006F00E881F0E0CF01880F991FE80FF91FCA
:10204000E55DFB4F8081806480836AE570E0CE01AE
:102050000E94140D8EE190E09E8F8D8F80ED97E0B1
:1020600098878F8380E090E0A4E8B2E4898F9A8F0C
:10207000AB8FBC8F8AE198EFA2ECBDE38D8B9E8B7A
:10208000AF8BB88F1F8E18A219A21AA28DE290E012
:102090009C838B83198A1A8A1B8A1C8A19861A8642
:1020A0001B861C861E821D821FA218A6DF91CF915F
:1020B0001F9108952F923F924F925F926F927F925D
:1020C0008F929F92AF92BF92CF92DF92EF92FF9248
:1020D0000F931F93CF93DF9300D000D0CDB7DEB71F
:1020E0001A01270138018B014C0198EAC92E94E0AE
:1020F000D92E59017B0188E0E80EF11CF80181918D
:1021000091918F01F60193838283F40181919191E2
:102110004F01F6019183808335822482628D738D15
:10212000C1010E94D83080E090E00E94132F9B01F3
:10213000AC01F601668B778B808F918F6BED7FE022
:1021400089EC90E40E946B2EF601628B738B848B7A
:10215000958BF50181919191A191B1915F01F6016A
:1021600086839783A087B187F9E2CF0ED11C0E1525
:102170001F0521F60E94AE0C0E94132F6B017C01FB
:10218000B101330C880B990B0E94152FA30192010A
:102190000E94CA2FA70196010E94FA2D4B015C01F3
:1021A000A5019401C701B6010E94662E18160CF411
:1021B000B1C085EA282E84E0382E00E010E00E94AD
:1021C000AE0CF10163A374A385A396A3C78CD0A022
:1021D000E1A0F2A02B013C014C185D086E087F08BD
:1021E000C58CD68CE12CF12CC414D504E604F7047C
:1021F0000CF080C0678F70A381A392A3C801805B9D
:102200009B4F7C01FC01E458FF4F8081811162C02B
:10221000F1012185328543855485618972898389DD
:1022200094890E94FA2D0E9437309B01AC01F10184
:102230006381748180E090E029833A834B835C83DF
:102240000E94132F29813A814B815C810E94CA2F01
:102250002B013C01F1016581768180E090E00E94D4
:10226000132F9B01AC01C301B2010E94FA2D2B0177
:102270003C0120E030E0A9010E94C52F20E030E0C1
:1022800040E05FE387FD05C0C301B2010E94FA2D63
:1022900004C0C301B2010E94F92D0E94DD2EF1019C
:1022A00076876587F701E358FF4F8081882331F0F7
:1022B000719561957109F10176876587F1016585F1
:1022C0007685665A7F4F87859089680F791FC1018F
:1022D0000E94140DF101258936894789508D618945
:1022E0007289838994890E94FA2DF101618B728B26
:1022F000838B948B075D1F4FF9E22F0E311C043A3C
:10230000110509F05CCF0E94AE0C0E94132F6B01E7
:102310007C0146CF0F900F900F900F90DF91CF91DF
:102320001F910F91FF90EF90DF90CF90BF90AF90F3
:102330009F908F907F906F905F904F903F902F90E5
:102340000895EF92FF920F931F93CF93DF93E82EA0
:10235000F62EC7E0D0E0042F10E098010C2E02C04A
:10236000359527950A94E2F7B901617077278E2D8C
:102370000E94E60A61E08F2D0E94E60A60E08F2D40
:102380000E94E60A219748F7DF91CF911F910F91A4
:10239000FF90EF9008952F923F924F925F926F922D
:1023A0007F928F929F92AF92BF92CF92DF92EF92E5
:1023B000FF920F931F93CF93DF9300D000D01F9213
:1023C000CDB7DEB72B013C01E12CF12C87E0282EA4
:1023D000312C812C912C54018394D501C401022C01
:1023E00004C0880F991FAA1FBB1F0A94D2F78983C4
:1023F000282F20952A832AE534E03D832C8300E0B2
:1024000010E0C8018E0D9F1DA301920104C05695D6
:102410004795379527958A95D2F7EC81FD8120FF66
:1024200004C080812981822B03C080812A8182237C
:10243000808360E0809151040E94E60AC12CD12C77
:1024400037E0301B3B838091530490E0C816D906D7
:1024500004F5C114D10459F44B8160915204809168
:1024600050040E94A111EC81FD81408108C040E030
:1024700060915204809150040E94A11140E060914B
:102480005204809150040E94A111FFEFCF1ADF0A7D
:10249000DACF60E0809151040E94E60A61E0809109
:1024A00051040E94E60A0F5F1F4F2C813D8121508D
:1024B00031093D832C830630110509F0A2CF31E0AC
:1024C000231A310846E0E40EF11C5EE1E516F10442
:1024D00009F083CF0F900F900F900F900F90DF9126
:1024E000CF911F910F91FF90EF90DF90CF90BF9011
:1024F000AF909F908F907F906F905F904F903F90A4
:102500002F900895CF93DF93CDB7DEB7CC57D10985
:102510000FB6F894DEBF0FBECDBF2CE7ECE8F1E0BC
:10252000DE01119601900D922A95E1F7660F771F53
:10253000660F771FE1E0F0E0EC0FFD1FE60FF71FDD
:102540006081718182819381C458DF4F0FB6F89406
:10255000DEBF0FBECDBFDF91CF910C94CB11609148
:102560004D0570914E0585EA94E00E94C10F60917F
:102570004F05709150058EEC94E00E94C10F609160
:1025800051057091520587EF94E00E94C10F609150
:1025900053057091540580E295E00C94C10F2F9281
:1025A0003F924F925F926F927F928F929F92AF92E3
:1025B000BF92CF92DF92EF92FF920F931F93CF9330
:1025C000DF93CDB7DEB728970FB6F894DEBF0FBE06
:1025D000CDBF6C0178876F830E94AF128091810517
:1025E0008111109281058F81988508961C019BE0CE
:1025F000C916D1040CF4C2C00D2C000CEE08FF0863
:10260000C701B6010E94152F20E030E040E251E4FE
:102610000E946B2E4B015C010F81188521E7422E31
:1026200025E0522E3DE5632E35E0732EF8016191D1
:1026300071918F01F301819191913F01681B790B99
:10264000072E000C880B990B0E94152FA5019401F1
:102650000E946B2EF20161937193819391932F01EC
:102660000215130519F70E94AE0CC60ED71EE81E00
:10267000F91EC0926905D0926A05E0926B05F0924E
:102680006C0544244394512C0E94AE0C00916905C2
:1026900010916A0520916B0530916C0560177107E8
:1026A0008207930708F07FC00E94AE0CDC01CB01CB
:1026B0000A96A11DB11D80936D0590936E05A093A0
:1026C0006F05B093700505EA14E081E7682E85E098
:1026D000782E8DE595E09A8389834201052C000CC4
:1026E000AA08BB08E981FA8161917191FA83E983B3
:1026F000F30121913191419151913F01072E000C3D
:10270000880B990B2B833C834D835E830E94152F8E
:102710006B017C01C501B4010E94152F2B813C8106
:102720004D815E810E94CA2F9B01AC01C701B60199
:102730000E94FA2D0E94DD2EF80127853089620F54
:10274000731FC8010E94140D075D1F4FF1E86F163B
:10275000F5E07F0639F60E94AE0C00916D051091F0
:102760006E0520916F053091700560177107820723
:10277000930788F38FEF481A580A86CFEF80F884C2
:1027800005EA14E0F701619171917F01F8018785F5
:102790009089680F791FC8010E94140D075D1F4FB3
:1027A000E214F30479F7AF81B885EDE5F5E08D919A
:1027B0009D9181939193A215B305C9F728960FB601
:1027C000F894DEBF0FBECDBFDF91CF911F910F9167
:1027D000FF90EF90DF90CF90BF90AF909F908F9041
:1027E0007F906F905F904F903F902F90089585EA73
:1027F00094E00E94040D8EEC94E00E94040D87EF9B
:1028000094E00E94040D80E295E00C94040DCF93B7
:10281000DF93CDB7DEB728970FB6F894DEBF0FBEB3
:10282000CDBF80918105811115C088E0E8E0F2E01C
:10283000DE01119601900D928A95E1F7BE016F5F5E
:102840007F4F84EF91E00E94CF120E94F71381E046
:102850008093810528960FB6F894DEBF0FBECDBFDA
:10286000DF91CF9108952F923F924F925F926F9296
:102870007F928F929F92AF92BF92CF92DF92EF9210
:10288000FF920F931F93CF93DF93CDB7DEB72897B7
:102890000FB6F894DEBF0FBECDBF9A8389837C83C9
:1028A0006B835E834D831901270138010E94AF12AB
:1028B00080918105811110928105C301B2010E94AE
:1028C000DD2E4B015C016B011616170684F1B40175
:1028D000990C880B990B0E94152F9B01AC01C30129
:1028E000B2010E94F92D7B018C0191014D815E8125
:1028F0006B817C8189819A810E945A1028960FB63B
:10290000F894DEBF0FBECDBFDF91CF911F910F9125
:10291000FF90EF90DF90CF90BF90AF909F908F90FF
:102920007F906F905F904F903F902F900895188602
:102930001F82E12CF12C00E81FE391014D815E81A3
:102940006B817C8189819A810E945A108F81988540
:10295000019698878F838C159D0559F7B8CFEF9214
:10296000FF920F931F93CF93DF93CDB7DEB7A0975E
:102970000FB6F894DEBF0FBECDBF7B018C0168E0BF
:10298000CE014996FC01762F11927A95E9F73E8F98
:102990002D8F38A32F8FDE015196FD0111926A957C
:1029A000E9F7F90137FD3196F595E795FE8BED8B4B
:1029B00037FF02C02F5F3F4F359527953195219501
:1029C0003109388F2F8B9E012F5F3F4F60E1F90156
:1029D00011926A95E9F7BD010E943314A0960FB6D3
:1029E000F894DEBF0FBECDBFDF91CF911F910F9145
:1029F000FF90EF900895EF92FF920F931F93CF9364
:102A0000DF93CDB7DEB7A0970FB6F894DEBF0FBE49
:102A1000CDBF28E0E0E1F2E0DE01599601900D9291
:102A20002A95E1F728E0E8E1F2E0DE015196019015
:102A30000D922A95E1F728E0E0E2F2E0DE01199636
:102A400001900D922A95E1F728E0E8E0F2E0DE013E
:102A5000119601900D922A95E1F76F3F7F4FA1F4F7
:102A600021E930E03E8F2D8F2AE730E038A32F8F09
:102A70004CE350E05E8B4D8B388F2F8B48E750E056
:102A80005E874D87388B2F878C01085E1340003995
:102A900081E0180714F400E911E0BE01675E7F4F82
:102AA00084EF91E00E94CF12BE016F5E7F4F84EFF2
:102AB00091E00E94CF127801F594E794F594E794A1
:102AC000BE01675F7F4FC7010E94CF12BE016F5EDC
:102AD0007F4FC7010E94CF12BE01675F7F4FC701C2
:102AE0000E94CF12BE016F5E7F4FC7010E94CF12BE
:102AF000BE016F5F7F4F84EF91E00E94CF12B8015B
:102B0000110F880B990B0E94850BA0960FB6F894B5
:102B1000DEBF0FBECDBFDF91CF911F910F91FF9010
:102B2000EF9008950F931F93CF93DF93CDB7DEB748
:102B300060970FB6F894DEBF0FBECDBF8C0188E062
:102B4000E8E2F2E0DE01199601900D928A95E1F734
:102B5000BE01675F7F4FC8010E94CF1288E0E8E0A6
:102B6000F2E0DE01119601900D928A95E1F7BE0127
:102B70006F5F7F4FC8010E94CF1260960FB6F89426
:102B8000DEBF0FBECDBFDF91CF911F910F91089592
:102B90003F924F925F926F927F928F929F92AF92ED
:102BA000BF92CF92DF92EF92FF920F931F93CF933A
:102BB000DF93CDB7DEB728970FB6F894DEBF0FBE10
:102BC000CDBF29013A010115110511F401E010E012
:102BD000E0906505F0906605209102012E1521F028
:102BE0002F3F09F0DEC104C0EDEBF1E0349081C06D
:102BF000E0920201EDEBF1E0E491EF3F09F4D1C185
:102C0000E13031F1E23009F44BC0E11171C014BC84
:102C100015BC24B5226024BD25B5216025BDA701C2
:102C20005527FA01E755FE4FE491F0E0EE0FFF1F44
:102C3000E156FE4F2591349130935E0820935D0854
:102C4000FA01E557FE4FE491E0935C08312C53C044
:102C500010928000109281002091810028602093C2
:102C6000810020918100216020938100A7015527D8
:102C7000FA01E755FE4FE491F0E0EE0FFF1FE15639
:102C8000FE4F2591349130935B0820935A08FA0146
:102C9000E557FE4FE491E0935908332433942BC059
:102CA0001092B0001092B1002091B00022602093E9
:102CB000B0002091B10021602093B100A7015527F9
:102CC000FA01E755FE4FE491F0E0EE0FFF1FE156E9
:102CD000FE4F259134913093890320938803FA01A4
:102CE000E557FE4FE491E0938703B2E03B2E03C02B
:102CF0003E2E37FC56C10E94E42E6D837E838F8367
:102D0000988761E08E2D0E94320B8D819E814C014F
:102D1000A12CB12C832D8D7F09F0BBC060E072E146
:102D20008AE790E0A50194010E94812D29833A83CE
:102D30004B835C8369017A0191E0C91AD108E108EB
:102D4000F108EFEFCE16D104E104F10409F008F424
:102D50004CC060E472E48FE090E0A50194010E9411
:102D6000812D69017A01F1E0CF1AD108E108F1085B
:102D700022E0321220C08FEFC816D104E104F10422
:102D800009F008F48BC160E970ED83E090E0A501E3
:102D900094010E94812D69017A0191E0C91AD1083C
:102DA000E108F108EFEFCE16D104E104F10409F0D7
:102DB000D0F583E067C0FFEFCF16D104E104F10442
:102DC000B1F0A8F068E478EE81E090E0A50194010C
:102DD0000E94812D69017A0181E0C81AD108E108B9
:102DE000F108332009F438C12EC181E001C082E02E
:102DF0003320A1F047C089819A81AB81BC812AE050
:102E0000B595A795979587952A95D1F76C017D0182
:102E1000E1E0CE1AD108E108F10885E095B5987F88
:102E2000892B85BD6FC068E478EE81E090E0A50154
:102E300094010E94812D69017A01E1E0CE1AD10846
:102E4000E108F108FFEFCF16D104E104F10409F025
:102E500008F4C8C064E274EF80E090E0A50194013A
:102E60000E94812D69017A0191E0C91AD108E10817
:102E7000F108EFEFCE16D104E104F10411F008F0EF
:102E8000B3C085E09091B100987F892B8093B10009
:102E900039C060E072E18AE790E0A50194010E94E8
:102EA000812D69017A0181E0C81AD108E108F10891
:102EB000C114D10491E0E906F10488F068E478EEE9
:102EC00081E090E0A50194010E94812D69017A01C1
:102ED000E1E0CE1AD108E108F10893E001C091E0E9
:102EE000F1E03F120FC080918100887F892B809391
:102EF0008100411451046104710449F42FEF3FEF44
:102F0000A9012EC0411451046104710479F0AD810E
:102F1000BE81AA0FBB1FA30192010E94A02D28EE23
:102F200033E040E050E00E945F2D03C02FEF3FEF01
:102F3000A90181E03816A1F092E0391619F131109B
:102F400030C0C7BC20936308309364084093650881
:102F50005093660880916E00826080936E0021C05D
:102F6000D0928900C092880020935F083093600857
:102F7000409361085093620880916F008260809353
:102F80006F000FC0C092B30020938A0330938B036D
:102F900040938C0350938D038091700082608093E6
:102FA0007000C301B2010E94850BB801110F880B9C
:102FB000990B28960FB6F894DEBF0FBECDBFDF91F8
:102FC000CF911F910F91FF90EF90DF90CF90BF9026
:102FD000AF909F908F907F906F905F904F903F90B9
:102FE0000C94850B84E04ECF62E17AE780E090E0BC
:102FF000A50194010E94812D69017A0181E0C81A1E
:10300000D108E108F1089FEFC916D104E104F104E9
:10301000C1F0B8F089819A81AB81BC814AE0B59555
:10302000A795979587954A95D1F76C017D01F1E0B9
:10303000CF1AD108E108F108332009F4EECE87E079
:1030400021CF86E0D5CEEFEFCE16D104E104F10416
:1030500009F050F684E0CCCE8FEFC816D104E1041D
:10306000F104D1F0C8F062E17AE780E090E0A501D8
:1030700094010E94812D69017A01F1E0CF1AD108F3
:10308000E108F1082FEFC216D104E104F10411F0B8
:1030900008F0B1CE84E0C2CE83E0C0CE82E0F2CEB2
:1030A0004F925F926F927F928F929F92AF92BF9258
:1030B000CF92DF92EF92FF920F931F93CF93DF9304
:1030C000CDB7DEB728970FB6F894DEBF0FBECDBFE1
:1030D0002B013C0129833A834B835C83ED82FE8282
:1030E0000F8318878114910419F488248394912CF8
:1030F00029813A814B815C81C301B2010E94662E15
:1031000087FF24C0C301B2010E94DD2E072E000CF0
:10311000880B990B0E94152F2B013C0129813A81C4
:103120004B815C810E94662E87FF34C08401A6011A
:103130009501C301B2010E94C8152D813E814F81C6
:103140005885C301B2010E94CA2FDECFC301B2016C
:103150000E94DD2E072E000C880B990B0E94152F64
:103160002B013C0129813A814B815C810E94C52F52
:10317000181684F48401A6019501C301B2010E94CE
:10318000C8152D813E814F815885C301B2010E942F
:103190006B2EDECF28960FB6F894DEBF0FBECDBFE4
:1031A000DF91CF911F910F91FF90EF90DF90CF9023
:1031B000BF90AF909F908F907F906F905F904F9057
:1031C00008950E94C20E0E9407140C94AC0EEF9258
:1031D000FF920F931F93CF93DF93CDB7DEB72C975A
:1031E0000FB6F894DEBF0FBECDBF0E94C20E0E9484
:1031F000071419821A821B821C82FE01359687E011
:10320000DF011D928A95E9F70E941321009729F1A9
:10321000FC01CE0101967C019E01245F3F4FDC0141
:103220008191882329F0A217B30711F08D93F8CF6D
:1032300005E010E0D7016D917D01C8016C870E9407
:10324000392D6C85681719F0C8010E94412D0F5F58
:103250001F4F0031110571F706C060ED77E080E087
:1032600090E00E94850B2C960FB6F894DEBF0FBE3F
:10327000CDBFDF91CF911F910F91FF90EF900C94F4
:10328000AC0E0E94C20E0E9407140E9413210097E8
:1032900061F00E94E02C01978331910508F046C04F
:1032A0008F5B9F4FFC010C94EC3060ED77E080E089
:1032B00090E00E94850B3AC080E090E035C081E04C
:1032C00090E032C086E090E02FC087E090E02CC014
:1032D00088E090E029C089E090E026C08AE090E094
:1032E00023C08BE090E020C08CE090E01DC08DE01A
:1032F00090E01AC08EE090E017C08FE090E014C01C
:1033000080E190E011C081E190E00EC082E190E0A8
:103310000BC083E090E008C084E090E005C085E049
:1033200090E002C082E090E00E94EF1C0C94AC0E92
:103330000E94C20E0E9407140E941321009759F0A8
:103340000E94E02C01978D309105A0F58C5A9F4F7B
:10335000FC010C94EC3060ED77E080E090E00E949E
:10336000850B28C080E090E023C081E090E020C081
:1033700082E090E01DC083E090E01AC084E090E01D
:1033800017C085E090E014C086E090E011C087E0AF
:1033900090E00EC088E090E00BC089E090E008C0AB
:1033A0008AE090E005C08BE090E002C08CE090E005
:1033B0000E940F010C94AC0E0E94C20E80918105F8
:1033C0008111109281050E941321009739F00E940B
:1033D000E02C909369038093680314C06AE170E065
:1033E00080E090E00E94821260ED77E080E090E063
:1033F0000E94850B80E594E00E94580E10926903AC
:10340000109268030E941321009719F00E94E02C8B
:1034100002C088EE93E090930101809300010E9426
:103420001321009719F00E94E02C02C08FE090E079
:1034300090930401809303010895CF92DF92EF925D
:10344000FF920F931F93CF93DF930E94C20E0E94AF
:1034500007140E941321009729F00E94E02C6C01B0
:10346000C0E001C0C1E00E941321009721F00E943A
:10347000E02C7C0101C0C1E00E941321009721F0E3
:103480000E94E02C8C0101C0C1E00E941321009732
:1034900021F00E94E02CCC2389F06AE170E080E00A
:1034A00090E00E94821260ED77E080E090E00E9460
:1034B000850B80E594E00E94580E1FC0D092B504A1
:1034C000C092B404F092DE04E092DD04109307058C
:1034D000009306059093300580932F0504EB14E0CC
:1034E000C0E0D0E0F8016081CE010E94412D21961C
:1034F000075D1F4FC430D105A9F7DF91CF911F9110
:103500000F91FF90EF90DF90CF900C94AC0EAF92A4
:10351000BF92CF92DF92EF92FF921F93CF93DF93F0
:10352000CDB7DEB728970FB6F894DEBF0FBECDBF7C
:103530000E94C20E8EE190E090936903809368032D
:103540000E941321009729F00E94E02C5C0110E0FA
:1035500001C011E00E941321009721F00E94E02C8D
:103560006C0101C011E00E941321009721F00E941C
:10357000E02C7C0101C011E00E941321009721F092
:103580000E94E02C112389F06AE170E080E090E075
:103590000E94821260ED77E080E090E00E94850B4F
:1035A00080E594E00E94580E0FC0BA82A982DC82A6
:1035B000CB82FE82ED8298878F83BE016F5F7F4F43
:1035C00088EC90E00E94CF120E94AC0E28960FB6B5
:1035D000F894DEBF0FBECDBFDF91CF911F91FF905A
:1035E000EF90DF90CF90BF90AF900895EF92FF9251
:1035F0000F931F93CF93DF9300D000D0CDB7DEB7EA
:103600000E94C20E0E9407140E941321009729F005
:103610000E94E02C7C0110E001C011E00E94132107
:10362000009721F00E94E02C112389F06AE170E0FC
:1036300080E090E00E94821260ED77E080E090E010
:103640000E94850B80E594E00E94580E16C09C01F4
:10365000990F440B550BB701FF0C880B990B29836D
:103660003A834B835C830E94152F01E010E029818F
:103670003A814B815C810E94C8150F900F900F908A
:103680000F90DF91CF911F910F91FF90EF900C94CD
:10369000AC0ECF93DF9300D0CDB7DEB70E94C20E41
:1036A0000E9407140E941321009751F042E050E05D
:1036B000BE016F5F7F4F0E94CE2B0E94CB1110C0C6
:1036C0006AE170E080E090E00E94821260ED77E0B5
:1036D00080E090E00E94850B80E594E00E94580E07
:1036E0000E94AC0E0F900F90DF91CF910895CF9272
:1036F000DF92EF92FF920F931F93CF93DF93CDB79B
:10370000DEB7A0970FB6F894DEBF0FBECDBF8531F0
:10371000910508F034C1FC01EF59FF4F0C94EC30D7
:103720000E9407142AC161E070E002C06FEF7FEFD2
:1037300080910001909101010E9441251EC161E02C
:1037400070E002C06FEF7FEF809100019091010166
:103750000E94EA2412C12091030130910401C0901B
:103760000001D090010158E0CE014996FC01452F9F
:1037700011924A95E9F73E8F2D8F38A32F8FBE0106
:103780006F5E7F4FFB0111925A95E9F73E8B2D8BAF
:10379000319521953109388F2F8B20E1E0E4F2E05B
:1037A000A0C0609103017091040141E050E006C0A7
:1037B00060910301709104014FEF5FEF8091000170
:1037C000909101010E944324D8C0209103013091BF
:1037D0000401409100015091010160E070E080E837
:1037E0009FE30E94AF14C9C02091030130910401EE
:1037F000409100015091010101E010E00AC02091C8
:1038000003013091040140910001509101010FEF3B
:103810001FEF60E070E080E89FE30E946121ADC08F
:1038200080910001909101010E949215A6C06091C3
:1038300003017091040141E050E006C06091030172
:10384000709104014FEF5FEF8091000190910101B1
:103850000E949E2392C060910301709104018091A7
:103860000001909101010E941B2187C061E070E07E
:1038700002C06FEF7FEF80910001909101010E94E3
:1038800035237BC061E070E002C06FEF7FEF809175
:103890000001909101010E94FB146FC0C0900001D3
:1038A000D090010120910301309104012A313105AA
:1038B00014F029E130E058E0CE014996FC01452F93
:1038C00011924A95E9F73A8F298F3C8F2B8FBE01D1
:1038D0006F5E7F4FFB0111925A95E9F720E1E0E519
:1038E000F2E0DE01119601900D922A95E1F7E12CAC
:1038F000F12C00E81FE39E012F5F3F4FA6013BC064
:1039000040910001509101018091030190910401C7
:103910008E30910514F08DE090E09A8F898F9C8F06
:103920008B8F9E8F8D8F98A38F8FBE016F5E7F4F81
:1039300028E0FB0111922A95E9F79C012C5F3F4F8B
:103940003E8B2D8B24E030E0F901E81BF90BF88F5A
:10395000EF8B80E1E0E6F2E0DE01119601900D923E
:103960008A95E1F7E12CF12C00E81FE39E012F5F1F
:103970003F4FCE0149960E9433140E94AC0EA09690
:103980000FB6F894DEBF0FBECDBFDF91CF911F9170
:103990000F91FF90EF90DF90CF9008950E947A22D0
:1039A0002AE330E040E050E00E94812D21153105EE
:1039B0004105510521F427EE33E040E050E0CA0113
:1039C000B9010E94152F0E94DD2E6F30710524F47D
:1039D00081E080936A03089510926A0308958F929C
:1039E0009F92AF92BF92CF92DF92EF92FF920F938E
:1039F0001F93CF93DF938331910508F0D5C2FC016B
:103A0000EA58FF4F0C94EC300EE110E022E330E076
:103A100040E050E064EA70ED84E294E40E94C8154E
:103A200009E110E027E330E040E050E062E570EDAE
:103A300084EA94E40E94C8150AE010E02CE330E028
:103A400040E050E060E070E08CED94E422C00EE1D4
:103A500010E022E330E040E050E064EA70ED84E200
:103A600094E40E94C81509E110E027E330E040E04B
:103A700050E060E070E08CED94E40E94C8150AE02C
:103A800010E022E330E040E050E062E570ED84EACF
:103A900094E40E94C81588C292E0892E912C24E1FA
:103AA000A22EB12CC12CD12C1AE0E12E17EDF12E53
:103AB00003E81FE32CE53FEF43EC54E462E570EDCF
:103AC00084EA94E40E9450186EE170E080E090E097
:103AD0000E94850B4AE0A42EB12CC12CD12C18EBEE
:103AE000E12E1EE1F12E05E81FE32FE135ED42E165
:103AF00055E412C0CAE08C2E912CDEE1AD2EB12C23
:103B0000C12CD12C1CE5E12E1FE8F12E02E81FE3A9
:103B100020E030E04CED54E462E570ED84EA94E49A
:103B200041C2FAE08F2E912CAEE1AA2EB12CC12C0D
:103B3000D12C1AE0E12E17EDF12E03E81FE32FE15F
:103B400035ED42E155E46CE57FEF83EC94E42AC265
:103B500004E610E022E330E040E050E062E570ED82
:103B600084EA94E40E94C81500E510E022E330E006
:103B700040E050E06CE57FEF83EC94E40E94C815D0
:103B800000E010E02CE231E040E050E06FE175ED44
:103B900082E195E47ECF88248394912C5AE0A52E6F
:103BA000B12CC12CD12C1CE5E12E1FE8F12E02E82E
:103BB0001FE320E030E646E055E460E070E088E492
:103BC00094E40E94501877E0A72EB12CC12CD12C80
:103BD0001AE0E12E17EDF12E03E81FE320E030E0BC
:103BE00048E454E460E070E586E095E4DBC193E0EE
:103BF000892E912C28E0A22EB12CC12CD12C18EBAF
:103C0000E12E1EE1F12E05E81FE320E030E04AEF4F
:103C100054E460E070E08CE594E40E94501868EC95
:103C200070E080E090E00E94850BC6E1D0E00AE001
:103C300010E025E030E040E050E068E471EF86E716
:103C400094E40E94C815219791F7AEC1C3E08C2E71
:103C5000912CD8E0AD2EB12CC12CD12C1AE0E12E44
:103C600017EDF12E03E81FE320E030E84BE355E4C5
:103C700060E070E08BEE94E40E94501868EC70E015
:103C800080E090E00E94850BC0E1D0E00AE010E007
:103C90002AE030E040E050E060E070ED82E894E43B
:103CA0000E94C815219791F77FC164E0862E912C60
:103CB00070E1A72EB12CC12CD12C1AE0E12E17ED0A
:103CC000F12E03E81FE320E030E041E654E460E039
:103CD00070E08FE294E40E945018F7E08F2E912C50
:103CE000A2E1AA2EB12CC12CD12C1EEAE12E17E4A0
:103CF000F12E01E81FE320E030E842E254E460E006
:103D000070EC80E694E44EC12AE0822E912C3AE0D9
:103D1000A32EB12CC12CD12C18EBE12E1EE1F12EDB
:103D200005E81FE320E030E04AEF53E460E070E094
:103D300088EC92E40E94501864EF71E080E090E01B
:103D40000E94850B88248394912C20E030E048EC7D
:103D500052E460E070E088EC93E424C1D8E08D2E5A
:103D6000912C14E1A12EB12CC12CD12C16E6E12E00
:103D7000FE2C06E81FE320E030E44CE155E460E06F
:103D800070E88BEB94E40E94501899E1A92EB12CB5
:103D9000C12CD12C20E030E84BEB54E460E070E320
:103DA0008CE195E4FFC0E3E08E2E912CF8E0AF2E7D
:103DB000B12CC12CD12C16E6E12EFE2C06E81FE317
:103DC00020E030E84BEB55E460E070E08AEF94E4EB
:103DD0000E94501862E370E080E090E00E94850B42
:103DE000B2E08B2E912CCDE0AC2EB12CC12CD12C7D
:103DF00020E030E04AEF54E460E078E78BEB95E4B4
:103E0000D1C048E0842E912C5FE0A52EB12CC12CAE
:103E1000D12C16E6E12EFE2C06E81FE320E030E070
:103E20004AEF54E460E070E88BEB94E40E94501891
:103E300064E670E080E090E00E94850B7AE0A72EB7
:103E4000B12CC12CD12C20E030E44CE155E460E0F1
:103E500070E88DEE94E4A6C098EC892E912C24E1B4
:103E6000A22EB12CC12CD12C1CE5E12E1FE8F12E85
:103E700002E81FE320E030E447E254E460E070E051
:103E80008CE594E48FC0F2E08F2E912CA8E0AA2E4E
:103E9000B12CC12CD12C1AE0E12E17EDF12E03E844
:103EA0001FE320E030E844ED54E460E070E08AE78E
:103EB00094E40E945018C3E08C2E912C18EBE12E54
:103EC0001EE1F12E05E81FE320E030E04AEF53E465
:103ED00060E070E684ED94E40E9450181AE0812EB0
:103EE000912C09E0A02EB12CC12CD12C16E6E12E8C
:103EF000FE2C06E81FE320E030E844ED54E460E0E7
:103F000070E08AE794E44EC06FE0862E912C72E058
:103F1000A72EB12CC12CD12C1CE5E12E1FE8F12ECF
:103F200002E81FE320E030E84BE355E460E070E096
:103F300088EC94E437C034E1832E912C42E0A42E27
:103F4000B12CC12CD12C1CE5E12E1FE8F12E02E88A
:103F50001FE320E030E84BEB55E460E070E08AEFCF
:103F600094E420C084E1882E912C92E0A92EB12CFB
:103F7000C12CD12C1CE5E12E1FE8F12E02E81FE335
:103F800020E030E04AE755E460E070E088EC94E43B
:103F90000E94501820E030E84BE355E460E070E008
:103FA0008AE795E40E945018DF91CF911F910F91FD
:103FB000FF90EF90DF90CF90BF90AF909F908F9049
:103FC0000895CF92DF92EF92FF92CF93DF93CDB718
:103FD000DEB7C059D1090FB6F894DEBF0FBECDBF12
:103FE00020E2E0E7F2E0DE01A75BBF4F01900D9217
:103FF0002A95E1F720E1E0E9F2E0DE01AF57BF4F9B
:1040000001900D922A95E1F728E1E0EAF2E0DE0165
:10401000A759BF4F01900D922A95E1F728E2E8EBEE
:10402000F2E0DE01119601900D922A95E1F720E26F
:10403000E0EEF2E0DE01999601900D922A95E1F70B
:104040006230710551F16CF461157105F9F0613060
:104050007105C1F5440F551F440F551FE1E8F0E00D
:1040600029C06330710501F16430710559F5440FC1
:10407000551F440F551FE1E0F0E0EC0FFD1FE40F6A
:10408000F51FC0A4D1A4E2A4F3A41CC0440F551F83
:10409000440F551FE9E4F0E00DC0440F551F440FD5
:1040A000551FE9E6F0E006C0440F551F440F551FA9
:1040B000E1E0F0E0EC0FFD1FE40FF51FC080D180C0
:1040C000E280F380C701B601C057DF4F0FB6F89406
:1040D000DEBF0FBECDBFDF91CF91FF90EF90DF909D
:1040E000CF900C94CB111F93CF93DF932091AF050A
:1040F0003091B0052031310504F5EB01BC0115E22A
:10410000129FC001139F900D112443E250E08F5481
:104110009A4F0E940E318091AF059091B005189F83
:10412000F001199FF00D1124EC52FA4FD183C08396
:1041300001969093B0058093AF05DF91CF911F91C9
:1041400008950F931F93CF93DF93182F062F60E0EE
:10415000809106080E94E60AC0E0D0E0209108089D
:1041600030E0C217D30784F4412F60910708809193
:1041700005080E94A111402F609107088091050851
:104180000E94A1112196EACF60E0809106080E946A
:10419000E60A61E080910608DF91CF911F910F91AF
:1041A0000C94E60A009769F0FC0101900020E9F701
:1041B0003197AF01481B590BBC018EE893E00C947A
:1041C000090880E090E008950F931F93CF93DF9349
:1041D0008C01C0E0D0E0F801EC0FFD1F6491662374
:1041E00071F0E0918E03F0918F030190F081E02D4A
:1041F0008EE893E00995892B11F02196ECCFCE0142
:10420000DF91CF911F910F910895CF93DF930E947B
:10421000E420EC0184E693E00E94D2208C0F9D1FE5
:10422000DF91CF9108954DEA55E068EA75E080E0AE
:1042300090E00C94072DEF92FF920F931F93CF9372
:10424000DF93CDB7DEB7A0970FB6F894DEBF0FBEF1
:10425000CDBFAC019B0198E0FE017996DF01892F6B
:104260001D928A95E9F77E8F6D8F78A36F8FBE01BF
:104270006F5E7F4FDB011D929A95E9F73E8B2D8B88
:10428000319521953109388F2F8B9E012F5F3F4F3C
:1042900080E1D9011D928A95E9F7E12CF12C00E823
:1042A0001FE3CF010E943314A0960FB6F894DEBF2F
:1042B0000FBECDBFDF91CF911F910F91FF90EF9077
:1042C00008952F923F924F925F926F927F928F92BA
:1042D0009F92AF92BF92CF92DF92EF92FF920F9395
:1042E0001F93CF93DF93CDB7DEB7A0970FB6F894A7
:1042F000DEBF0FBECDBF1B012C014A0188E06E015D
:1043000099E1C90ED11CF601982F11929A95E9F7FF
:1043100049E150E05A8F498F5C8F4B8F3E8F2D8F34
:1043200038A32F8F5E01E1E1AE0EB11CF5011192B1
:104330008A95E9F7C90137FD019695958795049609
:104340009E8B8D8B37FF02C02F5F3F4F3595279592
:1043500031952195310924503109388F2F8BCE01A9
:1043600001963C0180E1F30111928A95E9F780E022
:1043700090E0A4EBB2E489839A83AB83BC838D8302
:104380009E83AF83B88724EC2003B001219F700D7A
:104390001124072E000C880B990B0E94152F2BED72
:1043A0003FE049E450E40E94CA2F20E030E044E3BB
:1043B00053E40E946B2E6D877E878F87988B8201D6
:1043C00071019301A401B501C6010E943314A096A6
:1043D0000FB6F894DEBF0FBECDBFDF91CF911F9116
:1043E0000F91FF90EF90DF90CF90BF90AF909F9094
:1043F0008F907F906F905F904F903F902F90089597
:104400008F929F92AF92BF920F931F93CF93DF93A0
:10441000CDB7DEB7A1970FB6F894DEBF0FBECDBF04
:1044200019A2423008F44AE08E010F5D1F4F842E1E
:10443000912CA12CB12CA50194010E945F2DE62F97
:10444000B901CA0101501109EA3014F4E05D01C05C
:10445000E95CD801EC93232B242B252B61F7C801B1
:104460000E94D220A1960FB6F894DEBF0FBECDBF3A
:10447000DF91CF911F910F91BF90AF909F908F9040
:104480000895E0918E03F0918F030190F081E02D6B
:10449000682F8EE893E00994CF92DF92EF92FF921B
:1044A000CF93DF936C01990FEE08FF08F7FE17C05A
:1044B0008DE20E944122EC0166277727CB016C191F
:1044C0007D098E099F094AE00E9400228C0F9D1FE2
:1044D000DF91CF91FF90EF90DF90CF9008954AE069
:1044E000C701B601DF91CF91FF90EF90DF90CF90A1
:1044F0000C9400220F931F9360E0809149050E9465
:10450000E60A83E090E00197F1F761E080914905C8
:104510000E94E60A83E290E00197F1F760E0809163
:1045200049050E94E60A80914B0590914C05992718
:10453000FC01E557FE4F6491FC01E755FE4FE49105
:10454000F0E0EE0FFF1FE254FE4F8591949100E4DE
:104550001CE920E030E0462F0E94532661157105CA
:104560008105910549F0DC01CB010196A11DB11D2A
:10457000BC01CD019F7003C060E070E0CB011F91D2
:104580000F910895CF93DF93809167050E946E0B82
:10459000809167050E946E0BEC0164E070E080E0A2
:1045A00090E00E94850B809167050E946E0BC80FFA
:1045B000D91F64E070E080E090E00E94850BCE019E
:1045C000D7FD019695958795DF91CF9108950F932B
:1045D0001F93CF93DF9385E10E946E0B25E0AC0122
:1045E000249FC001259F900D1124BC01990F880BB9
:1045F000990B0E94152F20E030E040E85AE30E941A
:10460000CA2F8B01D82FC92F26E636E646E850E49C
:104610000E94C52F181624F406E616E6D6E8C0E474
:104620002FEB36E842ED52E4B8018D2F9C2F0E940B
:10463000CA2F2CE73DE04BEA53E40E94F92D8B0191
:10464000D82FC92F20E030E0A9010E94662E87FFF5
:1046500004C000E010E0D0E0C0E0B8018D2F9C2F36
:10466000DF91CF911F910F9108950F931F93CF93D7
:10467000DF93CDB7DEB768970FB6F894DEBF0FBEF5
:10468000CDBF8C0188E0E0E0F3E0DE0151960190BF
:104690000D928A95E1F788E0E8E0F3E0DE011996F3
:1046A00001900D928A95E1F788E0E0E1F3E0DE0108
:1046B000119601900D928A95E1F76F3F7F4F71F44B
:1046C00081E990E09E8B8D8B88E790E0988F8F8BAF
:1046D0002BE430E03E872D87988B8F87BE016F5E7D
:1046E0007F4F80E991E00E94CF12BE01675F7F4F4C
:1046F00080E991E00E94CF12B801110F880B990B4D
:104700000E94152F2DEC3CEC4CE45FE30E94CA2F75
:104710000E94E42E0E94850BBE016F5F7F4F84EFE5
:1047200091E00E94CF1268960FB6F894DEBF0FBEDC
:10473000CDBFDF91CF911F910F9108956F927F921E
:104740008F929F92AF92BF92CF92DF92EF92FF92A1
:104750000F931F93CF93DF93CDB7DEB7A0970FB61C
:10476000F894DEBF0FBECDBF3C018A0188E06E0128
:1047700099E1C90ED11CF601982F11929A95E9F78B
:104780002CE030E03A8F298F3C8F2B8F7E8F6D8FFE
:1047900078A36F8F5E01E1E1AE0EB11CF5011192BD
:1047A0008A95E9F7CB010A979E8B8D8B8AE090E082
:1047B000861B970B988F8F8BCE0101964C0180E161
:1047C000F40111928A95E9F78BED9FE0A9E4B0E43A
:1047D0008D839E83AF83B88726EA2403B001259F8B
:1047E000700D1124072E000C880B990B0E94152FB9
:1047F0002BED3FE049E450E40E94CA2F20E030E076
:1048000044E353E40E946B2E69877A878B879C87E9
:104810008AE5809FB001819F700D1124072E000C46
:10482000880B990B0E94152F2BED3FE049E450E4D3
:104830000E94CA2F20E030E044E353E40E946B2E34
:104840006D877E878F87988BE12CF12C00E81FE322
:104850009401A301B501C6010E943314A0960FB6BE
:10486000F894DEBF0FBECDBFDF91CF911F910F91A6
:10487000FF90EF90DF90CF90BF90AF909F908F9080
:104880007F906F9008956F927F928F929F92AF92D8
:10489000BF92CF92DF92EF92FF920F931F93CF932D
:1048A000DF93CDB7DEB7A0970FB6F894DEBF0FBE8B
:1048B000CDBF3C017A0188E06E0149E1C40ED11CF4
:1048C000F601482F11924A95E9F77E8F6D8F78A3F4
:1048D0006F8F5E0151E1A50EB11CF50111928A9511
:1048E000E9F7CB0177FD01969595879502969E8B0A
:1048F0008D8B77FF02C06F5F7F4F759567957195C0
:104900006195710962507109788F6F8B26EAA70152
:1049100024038001259F100D1124CE0101964C0126
:1049200080E1F40111928A95E9F7B801012E000C9B
:10493000880B990B0E94152F2BED3FE049E450E4C2
:104940000E94CA2F20E030E044E353E40E946B2E23
:1049500069877A878B879C8724ECA7012403B001A1
:10496000259F700D1124600F711F072E000C880BFE
:10497000990B0E94152F2BED3FE049E450E40E9473
:10498000CA2F20E030E044E353E40E946B2E6D8791
:104990007E878F87988BE12CF12C00E81FE3940130
:1049A000A301B501C6010E943314A0960FB6F89476
:1049B000DEBF0FBECDBFDF91CF911F910F91FF9052
:1049C000EF90DF90CF90BF90AF909F908F907F90AF
:1049D0006F900895EF92FF920F931F93CF93DF9301
:1049E000CDB7DEB7A0970FB6F894DEBF0FBECDBF30
:1049F000AC0198E0E8E1F3E0DE01599601900D92F8
:104A00009A95E1F798E0E0E2F3E0DE01519601903B
:104A10000D929A95E1F790E1E8E2F3E0DE0111965C
:104A200001900D929A95E1F76130710539F48EE1AC
:104A300090E09A8F898F8AE090E006C08AE090E04B
:104A40009A8F898F8EE190E09C8F8B8FE12CF12CD7
:104A500000E81FE39E012F5F3F4FBE016F5E7F4F57
:104A6000CE0149960E943314A0960FB6F894DEBF8B
:104A70000FBECDBFDF91CF911F910F91FF90EF90AF
:104A80000895AF92BF92CF92DF92EF92FF920F9371
:104A90001F93CF93DF93CDB7DEB7A0970FB6F894EF
:104AA000DEBF0FBECDBF5C019B0188E0E8E1F3E013
:104AB000DE01599601900D928A95E1F788E0E0E2D7
:104AC000F3E0DE01519601900D928A95E1F7CE0157
:104AD00001966C0180E1F60111928A95E9F746EAA8
:104AE0004203B001439F700D1124072E000C880B68
:104AF000990B0E94152F2BED3FE049E450E40E94F2
:104B0000CA2F20E030E044E353E40E946B2E698713
:104B10007A878B879C876D877E878F87988BE12C20
:104B2000F12C00E81FE39601A501BE016F5E7F4FE7
:104B3000CE0149960E943314A0960FB6F894DEBFBA
:104B40000FBECDBFDF91CF911F910F91FF90EF90DE
:104B5000DF90CF90BF90AF900895AF92BF92DF9259
:104B6000EF92FF920F931F93CF93DF93C1E095E2F3
:104B7000D92E8EE893E00E94A709181619060CF0AA
:104B800088C0CC2309F485C08EE893E00E94850993
:104B9000809382059091AA05891347C01092A705BA
:104BA0001092A6054DEA55E068EA75E083E895E0C5
:104BB0000E94072D8C019093AC058093AB05892B47
:104BC00009F467C0A090AF05B090B00581EBE82E66
:104BD00085E0F82EC0E0D0E0CA15DB050CF04CC033
:104BE00043E250E0B701C8010E94003125E2E20E25
:104BF000F11C892BC1F4DC9EF001DD9EF00D112427
:104C0000EC52FA4F0190F081E02D0995E3E8F5E0D0
:104C1000119285E0E63AF807D9F71092A7051092AD
:104C2000A605C0E002C02196D7CFD09182058D2F76
:104C30000D2E000C990B0E94F930892B09F499CFA5
:104C40008091A6059091A7059C012F5F3F4F30935F
:104C5000A7052093A605FC01EE57FA4FD183F90171
:104C6000EE57FA4F1182233231050CF482CF1092A5
:104C7000A7051092A6057DCFE0910108F0910208EA
:104C80000995E3E8F5E0119225E0E63AF207D9F755
:104C9000C4CFDF91CF911F910F91FF90EF90DF90E4
:104CA000BF90AF900895CF92DF92EF92FF920F9353
:104CB0001F93E82FF92F05C001501109210931096F
:104CC00061F1908196239417B9F305C00150110941
:104CD0002109310911F1908196239413F7CFC12C4A
:104CE000D12CE12CF12C0AC08FEFC81AD80AE80A9F
:104CF000F80A0C151D052E053F0579F080818623E5
:104D0000841791F36C2D7D2D8E2D9F2D1F910F916A
:104D1000FF90EF90DF90CF90089560E070E080E02A
:104D200090E01F910F91FF90EF90DF90CF9008954A
:104D3000CF93DF93CDB7DEB728970FB6F894DEBFD9
:104D40000FBECDBF789484B5826084BD84B5816088
:104D500084BD85B5826085BD85B5816085BD809146
:104D60006E00816080936E001092810080918100BE
:104D700082608093810080918100816080938100B6
:104D8000809180008160809380008091B100846078
:104D90008093B1008091B00081608093B0008091D9
:104DA0007A00846080937A0080917A008260809398
:104DB0007A0080917A00816080937A0080917A00F5
:104DC000806880937A001092C100E0919E03F09178
:104DD0009F0382E08083E0919A03F0919B0310820D
:104DE000E0919C03F0919D0380E180831092A603E3
:104DF000E091A203F091A30386E08083E091A003F9
:104E0000F091A103808180618083E091A003F09103
:104E1000A103808188608083E091A003F091A103C9
:104E2000808180688083E091A003F091A10380815C
:104E30008F7D808382E090E090934E0580934D05B6
:104E400083E090E09093500580934F0584E090E0DC
:104E5000909352058093510585E090E0909354051E
:104E6000809353050E94AF121092810504EB14E069
:104E7000612C712CC3010E94392D282F30E021387C
:104E800031050CF03A95F80131832083FFEF6F1A5A
:104E90007F0A075D1F4F24E06216710459F78AE507
:104EA00090E090935E0580935D05909360058093FC
:104EB0005F059093620580936105909364058093EC
:104EC000630588E090E090934A058093490589E066
:104ED00090E090934C0580934B0561E088E00E9440
:104EE000320B60E080914B050E94320B8DE090E028
:104EF000909366058093650584E190E09093680542
:104F00008093670561E08DE00E94320B60E084E1F0
:104F10000E94320B61E0809105080E94320B61E033
:104F2000809107080E94320B61E0809106080E9480
:104F3000320B61E0809107080E94E60A67E08BE08F
:104F40000E94A12060E089E00E94A12061E08CE045
:104F50000E94A12060E08FE00E94A12085E098E0FF
:104F60000E94580E6FE08AE00E94A12061E08AE072
:104F70000E94A12084E10E946E0BBC01990F880B56
:104F8000990B611571058105910511F00E94C52BE2
:104F900061EE78E188E393E00E94732069E47BE1AD
:104FA0008AE393E00E94732066EF7AE18CE393E05A
:104FB0000E9473206CED79E18EE393E00E947320F0
:104FC00068E979E180E493E00E94732061E479E18B
:104FD00082E493E00E9473206DE17AE184E493E03F
:104FE0000E94732067E87AE186E493E00E947320D0
:104FF00067EE78E188E493E00E94732067E97AE045
:105000008AE493E00E94732067E57AE08CE493E001
:105010000E9473206BE37AE08EE493E00E94732099
:105020006FEB7BE080E593E00E94732065E27AE01D
:1050300082E593E00E94732069E27FE084E593E0DB
:105040000E94732068ED7EE086E593E00E94732065
:1050500081EE98E1909302088093010880E090E04F
:105060000E94EF1C0E940714612C712CA30160E0C8
:1050700070E0CB010E94E11F66E970E080E090E003
:105080000E94850B8FEF681A780AE8E06E167104AB
:1050900069F7612C712CA30160E070E0CB010E94E4
:1050A000E11F66E970E080E090E00E94850BFFEF71
:1050B0006F1A7F0A28E06216710469F76AE070E0EF
:1050C00080E090E00E9482128BE090E00E94EF1C52
:1050D00068EC70E080E090E00E94850B85E090E055
:1050E0000E94392D833221F58CEB92E00E949215BB
:1050F00068EC70E080E090E00E94850B61E070E079
:1051000080910001909101010E94FB146FE070E01A
:1051100080E090E00E94821224E130E040E253E01F
:1051200060E070E080E090E40E94AF140E940714F9
:105130006BE070E080E090E00E9482120E94AE0C72
:10514000609371037093720380937303909374035D
:1051500058E0352E60E4462E66E0562E8EE893E049
:105160000E94A709181619063CF480916B039091D0
:105170006C03049709F008C260906B0370906C0395
:1051800082E06816710409F428C14CF461147104BA
:1051900089F0F1E06F16710409F4CEC0EEC123E08E
:1051A0006216710409F49AC184E06816710409F466
:1051B000D7C1E3C10E94AE0C00917103109172033C
:1051C0002091730330917403DC01CB01801B910BA0
:1051D000A20BB30B80389843A140B10508F4D1C1AC
:1051E000E9E7F1E0DE011196832D01900D928A9599
:1051F000E1F7BE016F5F7F4F8CEB92E00E94CF1210
:1052000044E0642E712C40E050E061E070E080E00A
:1052100090E00E94E11F8AE0882E912C9AE0A92E4E
:10522000B12CC12CD12C18EBE12E1EE1F12E05E89A
:105230001FE320E030E048E453E460E070E088ECF5
:1052400092E40E94501841E050E061E070E080E09C
:1052500090E00E94E11F20E030E046E953E460E086
:1052600070E088E493E40E94501842E050E061E06E
:1052700070E080E090E00E94E11F20E030E04AEF23
:1052800053E460E070E086E993E40E94501864EF14
:1052900071E080E090E00E94850B41E050E061E029
:1052A00070E080E090E00E94E11F88248394912CBC
:1052B00020E030E04AE753E460E070E088EC93E4FB
:1052C0000E94501840E050E061E070E080E090E023
:1052D0000E94E11F20E030E048EC52E460E070E022
:1052E0008AE793E40E94501864EF71E080E090E058
:1052F0000E94850BF1E06F1A710809F084CF63E119
:1053000070E080E090E00E94821289E090E00E94CC
:10531000EF1C0E9407146BE070E080E090E00E94B8
:1053200082120E94AE0C609371037093720380939B
:1053300073039093740325C160E170E080E090E016
:105340000E944008DC01CB010596A11DB11D909380
:10535000700380936F036A5071096430710548F4DB
:1053600070926E0360926D035092010140920001B1
:1053700015C063E070E080E090E00E944008DC012E
:10538000CB010396A11DB11D90936E0380936D0315
:1053900088EE93E090930101809300016BE070E050
:1053A00080E090E00E944008665F7F4F8F4F9F4FE4
:1053B0000E94821200E010E080916D0390916E03D4
:1053C000081719070CF0DDC080916F0390917003EE
:1053D0000E94771B0F5F1F4FEFCF80916A038823D6
:1053E00009F473C06EE070E080E090E00E948212E9
:1053F00086E090E00E94EF1C84EF91E00E949215FD
:1054000064E170E080E090E00E94821289E090E028
:105410000E94EF1C6FEF7FEF84E195E00E94412531
:105420006FEF7FEF84E195E00E9441256FEF7FEF02
:1054300084E195E00E94412564E670E080E090E020
:105440000E94850B0E94CE1C64E670E080E090E034
:105450000E94850B80916A03811193C06AE070E01D
:1054600080E090E00E94821262E370E080E090E0D1
:105470000E94850B0E94CE1C03E010E080916A031D
:105480008823B9F080916A0381117BC00E940714C0
:105490006BE070E080E090E00E9482128DE090E08E
:1054A0000E94EF1C68EC70E080E090E00E94850BA9
:1054B00068C061E070E088EE93E00E94EA240E94F8
:1054C000CE1C01501109D1F6DDCF61E070E088EE0D
:1054D00093E00E9441250E94CE1C53C00E94C2222C
:1054E0008A3892400CF44DC062E370E080E090E0B6
:1054F0000E94850B6EE070E080E090E00E948212D6
:1055000087E090E00E94EF1C6BE070E080E090E0AC
:105510000E944008665F7F4F8F4F9F4F0E9482120C
:1055200060E170E080E090E00E944008DC01CB0187
:105530000596A11DB11D9093700380936F030E9487
:10554000771B0E94071464EF71E080E090E00E94F6
:10555000850B6BE070E080E090E00E94821211C049
:105560000E94AD258091810581110BC08091680357
:10557000909169030E94771B04C010926C031092F3
:105580006B030E94B309EACD0E94AD256BE070E089
:1055900080E090E00E948212EFCD10929103109271
:1055A000900388EE93E0A0E0B0E0809392039093A4
:1055B0009303A0939403B093950384E392E09093B4
:1055C0008F0380938E0385EC90E090939B038093F0
:1055D0009A0384EC90E090939D0380939C0380EC6D
:1055E00090E090939F0380939E0381EC90E09093D2
:1055F000A1038093A00382EC90E09093A303809397
:10560000A20386EC90E09093A5038093A4031092EC
:10561000A7031092A8031092A9031092AA038CE08A
:10562000809305088AE0809306088BE08093070842
:1056300081E080930808E9E0F8E0119228E0E9357C
:10564000F207D9F780E290E09093A9058093A8052E
:105650008DE08093AA051092B0051092AF05E3E8A3
:10566000F5E0119285E0E63AF807D9F71092A70520
:105670001092A6058CE0809350048AE08093510438
:105680008BE08093520481E080935304E4E5F4E0DE
:10569000119224E0E43AF207D9F780914F04E5EA49
:1056A000F4E09FEF48EB5BE08C3088F48083282F98
:1056B00030E0D901AA0FBB1F2A0F3B1FD901A55DFE
:1056C000BB4F12965C934E9311978F5F01C09083EE
:1056D000108A1786B99625E0E934F20729F78093F6
:1056E0004F0408958F929F92AF92BF92CF92DF9214
:1056F000EF92FF92CF93DF93EC01688179818A81E9
:105700009B81611571058105910521F464E279EDB4
:105710008BE597E02DE133EF41E050E00E94812DD1
:1057200049015A019B01AC01A7EAB1E40E94A02DF6
:105730006B017C01ACEEB4EFA50194010E94AE2D8B
:10574000DC01CB018C0D9D1DAE1DBF1DB7FF03C03D
:105750000197A109B04888839983AA83BB83BC01C0
:10576000CD019F77DF91CF91FF90EF90DF90CF90A9
:10577000BF90AF909F908F9008950E94722B0895D4
:1057800085E091E00E94722B08956093050170936B
:10579000060180930701909308010895A6E0B0E008
:1057A000E4EDFBE20C94B32D5C016B017A01611511
:1057B000710519F0DB018D939C93E114F10429F03C
:1057C000C7010297839708F0DCC03501BFEF6B1A61
:1057D0007B0AF5011081812F90E00E94FE2C892B1D
:1057E00011F05301F2CF1D3249F43501F2E06F0E92
:1057F000711CD50111961C9101E009C01B3231F4D6
:105800003501B2E06B0E711CF501118100E0E1146D
:10581000F10409F4C4C0F0E1EF16F10489F4103387
:1058200099F5D3018C918F7D883509F0B2C011961E
:105830001C91B2E06B0E711C026050E1E52EF12C60
:10584000EAE0EE16F10409F4B0C0F0E1EF16F1045D
:10585000D9F028E0E216F10451F438E0E32EF12CFF
:1058600088248A94982CA82C4FE1B42E13C06FEF93
:105870007FEFCB0197010F2C000C440B550B0E94BE
:105880005F2D49015A0106C088248A94982CA82CBF
:105890002FE0B22E7E826D8260E020E030E0A90130
:1058A00027010F2C000C660877082D803E80E0ED64
:1058B000E10FEA3060F08FEB810F8A3110F4E9ECF0
:1058C00005C08FE9810F8A3190F5E9EAE10F8E2F4B
:1058D00090E08E159F055CF56F3F09F182169306E7
:1058E000A406B506D8F0C301B2010E944F2D2E2F99
:1058F00030E040E050E029833A834B835C83260FFD
:10590000371F481F591F89819A81AB81BC81281795
:1059100039074A075B0710F061E001C06FEFED81C6
:10592000FE813196FE83ED83D1011C91BECFC1145F
:10593000D10489F0662339F08D819E810197F601AB
:105940009183808308C001FF06C08D819E810297EC
:10595000D6018D939C9300FF07C0509540953095DC
:1059600021953F4F4F4F5F4F67FF10C082E290E09D
:1059700090936808809367086FEF7FEF8FEF9FEF3A
:105980001BC060E070E080E090E016C0B901CA0181
:1059900013C010E3E114F10409F45FCF51CF1033C9
:1059A00009F43FCF9AE0E92EF12C89E9882E982C52
:1059B000A82C89E1B82E6ECF2696E2E10C94CF2D6B
:1059C000FC0188279927E89421912032E9F32930B6
:1059D00010F02E30C8F32B3241F02D3239F4689498
:1059E00004C00E942E2D820F911D219120532A3038
:1059F000C0F31EF4909581959F4F089591110C94DA
:105A0000362D803219F089508550C8F70895FA0173
:105A1000A191B081009719F41097E1F0CD01DC015C
:105A2000CD010D90002011F4C00113C0FB012191A4
:105A3000222319F02015D9F7F3CFFB01219120156E
:105A400019F41E92119606C02223C1F70D90002072
:105A5000A1F7D001FA01A193B08308957AE0979F4E
:105A6000902D879F802D910D1124089599278827C7
:105A70000895F999FECF92BD81BDF89A992780B516
:105A80000895262FF999FECF1FBA92BD81BD20BD82
:105A90000FB6F894FA9AF99A0FBE01960895DB01B1
:105AA0008F939F930E94A02DBF91AF91A29F800DD5
:105AB000911DA39F900DB29F900D11240895A1E216
:105AC0001A2EAA1BBB1BFD010DC0AA1FBB1FEE1F78
:105AD000FF1FA217B307E407F50720F0A21BB30BC3
